{
  "_format": "hh-sol-artifact-1",
  "contractName": "RContract",
  "sourceName": "contracts/token/onft721/INHERITNFT.sol",
  "abi": [
    {
      "inputs": [
        {
          "internalType": "address payable",
          "name": "_marketContractAddress",
          "type": "address"
        }
      ],
      "stateMutability": "nonpayable",
      "type": "constructor"
    },
    {
      "inputs": [],
      "name": "fetchItemsFromMarket",
      "outputs": [
        {
          "components": [
            {
              "internalType": "uint256",
              "name": "tokenId",
              "type": "uint256"
            },
            {
              "internalType": "address payable",
              "name": "seller",
              "type": "address"
            },
            {
              "internalType": "address payable",
              "name": "owner",
              "type": "address"
            },
            {
              "internalType": "uint256",
              "name": "price",
              "type": "uint256"
            },
            {
              "internalType": "bool",
              "name": "sold",
              "type": "bool"
            }
          ],
          "internalType": "struct NFTMarketplace.MarketItem[]",
          "name": "",
          "type": "tuple[]"
        }
      ],
      "stateMutability": "view",
      "type": "function"
    },
    {
      "inputs": [
        {
          "internalType": "uint256",
          "name": "page",
          "type": "uint256"
        }
      ],
      "name": "fetchItemsFromMarketContractToReverseIt",
      "outputs": [
        {
          "components": [
            {
              "internalType": "uint256",
              "name": "tokenId",
              "type": "uint256"
            },
            {
              "internalType": "address payable",
              "name": "seller",
              "type": "address"
            },
            {
              "internalType": "address payable",
              "name": "owner",
              "type": "address"
            },
            {
              "internalType": "uint256",
              "name": "price",
              "type": "uint256"
            },
            {
              "internalType": "bool",
              "name": "sold",
              "type": "bool"
            }
          ],
          "internalType": "struct NFTMarketplace.MarketItem[]",
          "name": "",
          "type": "tuple[]"
        }
      ],
      "stateMutability": "view",
      "type": "function"
    }
  ],
  "bytecode": "0x608060405234801561001057600080fd5b506040516106d63803806106d683398101604081905261002f91610054565b600080546001600160a01b0319166001600160a01b0392909216919091179055610084565b60006020828403121561006657600080fd5b81516001600160a01b038116811461007d57600080fd5b9392505050565b610643806100936000396000f3fe608060405234801561001057600080fd5b50600436106100365760003560e01c8063cbcf37ac1461003b578063d2b0293414610059575b600080fd5b61004361006c565b6040516100509190610349565b60405180910390f35b6100436100673660046103c5565b6100e1565b60008054604080516278477f60e51b815290516060936001600160a01b0390931692630f08efe092600480820193918290030181865afa1580156100b4573d6000803e3d6000fd5b505050506040513d6000823e601f3d908101601f191682016040526100dc919081019061046a565b905090565b606060006003905060008060009054906101000a90046001600160a01b03166001600160a01b0316630f08efe06040518163ffffffff1660e01b8152600401600060405180830381865afa15801561013d573d6000803e3d6000fd5b505050506040513d6000823e601f3d908101601f19168201604052610165919081019061046a565b905060005b600282516101789190610579565b8110156102245760008160018451610190919061059b565b61019a919061059b565b905060008383815181106101b0576101b06105b4565b602002602001015190508382815181106101cc576101cc6105b4565b60200260200101518484815181106101e6576101e66105b4565b602002602001018190525080848381518110610204576102046105b4565b60200260200101819052505050808061021c906105ca565b91505061016a565b5060008261023360018761059b565b61023d91906105e3565b9050600061024b84836105fa565b9050825181111561025a575081515b6000610266838361059b565b905060008167ffffffffffffffff811115610283576102836103de565b6040519080825280602002602001820160405280156102dc57816020015b6040805160a0810182526000808252602080830182905292820181905260608201819052608082015282526000199092019101816102a15790505b50905060005b8281101561033d57856102f582876105fa565b81518110610305576103056105b4565b602002602001015182828151811061031f5761031f6105b4565b60200260200101819052508080610335906105ca565b9150506102e2565b50979650505050505050565b602080825282518282018190526000919060409081850190868401855b828110156103b857815180518552868101516001600160a01b03908116888701528682015116868601526060808201519086015260809081015115159085015260a09093019290850190600101610366565b5091979650505050505050565b6000602082840312156103d757600080fd5b5035919050565b634e487b7160e01b600052604160045260246000fd5b60405160a0810167ffffffffffffffff81118282101715610417576104176103de565b60405290565b604051601f8201601f1916810167ffffffffffffffff81118282101715610446576104466103de565b604052919050565b80516001600160a01b038116811461046557600080fd5b919050565b6000602080838503121561047d57600080fd5b825167ffffffffffffffff8082111561049557600080fd5b818501915085601f8301126104a957600080fd5b8151818111156104bb576104bb6103de565b6104c9848260051b0161041d565b818152848101925060a09182028401850191888311156104e857600080fd5b938501935b8285101561033d5780858a0312156105055760008081fd5b61050d6103f4565b8551815261051c87870161044e565b87820152604061052d81880161044e565b908201526060868101519082015260808087015180151581146105505760008081fd5b90820152845293840193928501926104ed565b634e487b7160e01b600052601160045260246000fd5b60008261059657634e487b7160e01b600052601260045260246000fd5b500490565b818103818111156105ae576105ae610563565b92915050565b634e487b7160e01b600052603260045260246000fd5b6000600182016105dc576105dc610563565b5060010190565b80820281158282048414176105ae576105ae610563565b808201808211156105ae576105ae61056356fea2646970667358221220ce164c0d8aed3f68ec5845f78f77886e97a1e78a52685b08b03a38f78680fe0464736f6c63430008130033",
  "linkReferences": {},
  "deployedLinkReferences": {}
}